:100000008FEF00F00000000000EF00F000000000A3
:0A0010000000000000000000F3D71C
:10001C00040E0C6E3A0E0D6E0D2EFED70C2EFCD768
:04002C0000001200BE
:100030002D6A29C001F0010E006E015004E0003667
:100040000090FF0FFBD700C02CF027C0E9FF28C0AD
:10005000EAFF0050EE14016E0152010ED8A4000E0A
:10006000006E2B50001A18E02A50000804E2D6DF78
:10007000D5DF2A06F9D727C0E9FF28C0EAFF2C50B0
:10008000EE14016E0152010ED8A4000E006E2B502A
:0E009000001A02E0FF0E2D6E2DC000F01200CF
:0E009E00ACB202D00000FCD727C0ADFF1200AC
:1000AC00AECF01F0ABA202D0AB98AB8801C000F090
:0200BC00120030
:1000BE009E0E156E000E166E270E176E000E186E23
:1000CE00AC0E236E000E246E000E256E000E266EF4
:1000DE00140E1F6E010E206E000E216E000E226E8B
:1000EE00FF0E1B6EFF0E1C6E000E1D6E000E1E6EA2
:1000FE00AC8A900EAB6E948E949C9EAA03D0AECF1B
:06010E0000F0FBD7120017
:0A011400000E9EBA010E006E1200EC
:10011E000F0EC16EB46AFF0E936E816A8A6AFF0E6D
:10012E00946E826A8B6A966A846A8D6A956A836A0D
:10013E008C6A8D808C808C82B886020EB06E080E12
:10014E00AF6EAC84B5DF030E0B6E8A0E0C6E550EC1
:10015E000D6E0D2EFED70C2EFCD70B2EFAD70000EF
:10016E000000D1DF0050010AD8A481D098DF00C072
:10017E001AF000504F0A17E1820E276E0F0E286EEE
:10018E00020E296E010E2A6E010E2B6E4ADF0052F0
:10019E000AE08CA008D08C928C906F0E196E6F0EA8
:1001AE00276E76DF22D01A50430A16E1820E276E92
:1001BE000F0E286E296A010E2A6E010E2B6E31DF8C
:1001CE0000520AE08CA008D08C828C90630E196EBF
:1001DE00630E276E5DDF09D01A50530A06E18C803C
:1001EE00730E196E730E276E53DF8CB01FD08CB248
:1001FE001DD01A50430A1AE18D808C80730E196E31
:10020E00730E276E45DFB20E0B6E8F0E0C6E130E35
:10021E000D6E0D2EFED70C2EFCD70B2EFAD78C8220
:10022E00630E196E630E276E33DF8C908CB01FD069
:10023E008CA21DD01A504F0A1AE18D808C80730E3D
:10024E00196E730E276E24DFB20E0B6E8F0E0C6EB0
:10025E00130E0D6E0D2EFED70C2EFCD70B2EFAD7CD
:10026E008C928C906F0E196E6F0E276E11DF810EB1
:10027E00276E0F0E286E020E296E010E2A6E2B6A45
:10028E00D0DE00521FE0810E276E0F0E286E020E7A
:10029E00296E010E2A6E2B6AC4DE005201E0F3D7DE
:1002AE008C80730E196E730E276EF2DEB20E0B6E0D
:1002BE008F0E0C6E130E0D6E0D2EFED70C2EFCD760
:1002CE000B2EFAD7810E276E0F0E286E296A010E9D
:1002DE002A6E2B6AA6DE005222E0820E276E0F0EC9
:1002EE00286E020E296E010E2A6E010E2B6E99DEFD
:1002FE00005215E08CA013D0810E276E0F0E286EC3
:10030E00296A010E2A6E2B6A8CDE005201E0F4D7A8
:10031E008C928C906F0E196E6F0E276EB9DE8CB0AC
:10032E005FD08D90080E0B6E9D0E0C6E050E0D6E31
:10033E000D2EFED70C2EFCD70B2EFAD70000000088
:10034E008D80080E0B6E9D0E0C6E050E0D6E0D2E15
:10035E00FED70C2EFCD70B2EFAD700000000810E14
:10036E00276E0F0E286E296A010E2A6E2B6A59DE31
:10037E00005234E1810E276E0F0E286E010E296E8B
:10038E00010E2A6E2B6A4DDE005228E1810E276E79
:10039E000F0E286E020E296E010E2A6E2B6A41DE9A
:1003AE0000521CE1820E276E0F0E286E296A010E76
:1003BE002A6E2B6A36DE005211E1820E276E0F0E68
:1003CE00286E020E296E010E2A6E2B6A2ADE00524C
:1003DE0005E199DE0050010A01E001D001D09FD75E
:1003EE008CB245D0810E276E0F0E286E010E296E2F
:1003FE00010E2A6E2B6A15DE00521BE08D808C805A
:10040E00730E196E730E276E43DEB20E0B6E8F0EC9
:10041E000C6E130E0D6E0D2EFED70C2EFCD70B2E62
:10042E00FAD78C82630E196E630E276E31DE8C90B6
:10043E001ED0820E276E0F0E286E020E296E010E32
:10044E002A6E2B6AEEDD005212E08C80770E196E4A
:10045E00770E276E1DDEB20E0B6E8F0E0C6E130E08
:10046E000D6E0D2EFED70C2EFCD70B2EFAD7810E4D
:10047E00276E0F0E286E010E296E010E2A6E2B6A44
:10048E00D0DD005222E0820E276E0F0E286E296AF2
:10049E00010E2A6E010E2B6EC4DD005216E08CA0EA
:1004AE0014D0810E276E0F0E286E010E296E010ECE
:1004BE002A6E2B6AB6DD005201E0F3D78C828C9047
:1004CE00630E196E630E276EE3DD8CA244D0810E8F
:1004DE00276E0F0E286E296A010E2A6E2B6AA1DD79
:1004EE0000521BE08D808C80730E196E730E276E7A
:1004FE00CFDDB20E0B6E8F0E0C6E130E0D6E0D2E1B
:10050E00FED70C2EFCD70B2EFAD78C928C906F0E3A
:10051E00196E6F0E276EBCDD1ED0820E276E0F0E6B
:10052E00286E296A010E2A6E2B6A7BDD005213E0BB
:10053E008D808C80710E196E710E276EA9DDB20E34
:10054E000B6E8F0E0C6E130E0D6E0D2EFED70C2E27
:0A055E00FCD70B2EFAD705D6FFD705
:020000040030CA
:0E000000040C3F1EFF8081FF0FC00FE00F4079
:00000001FF
